:020000020000FC
:020000001CC022
:100038001BC00FEF0DBF08E00EBF11240CEF0AB96B
:100048001BB8209A219A229A15B844275527662763
:10005800772702E004BD05E005BD0BE907BD02E016
:1000680000936E007894FFCF0F931F932F933F93C5
:10007800EF93FF9329982A9801E07027772311F0CE
:10008800152F01C0142FEEEDF0E0E10FF11D2491C2
:10009800322F3F73330F330F3BB926FF02C0289A24
:1000A80001C02898772311F02A9A01C0299A6395EC
:1000B800643650F0662743954A3010F0442753952C
:1000C800563011F455274427FF91EF913F912F9116
:1000D8001F910F9118953F065B4F666D7D077F6FE7
:0600E800777C395E79719E
:00000001FF
